:100000000C9464000C948C000C948C000C948C0068
:100010000C948C000C948C000C948C000C948C0030
:100020000C948C000C948C000C948C000C948C0020
:100030000C948C000C948C000C948C000C948C0010
:100040000C94FE020C948C000C94CE040C941C05B1
:100050000C948C000C948C000C948C000C948C00F0
:100060000C948C000C948C000000000024002700ED
:100070002A0000000000250028002B0000000000DE
:1000800023002600290004040404040404040202DA
:100090000202020203030303030301020408102007
:1000A0004080010204081020010204081020000012
:1000B0000007000201000003040600000000000029
:1000C00000000B018806040111241FBECFEFD8E009
:1000D000DEBFCDBF11E0A0E0B1E0EAE3F9E102C08C
:1000E00005900D92A43BB107D9F712E0A4EBB1E063
:1000F00001C01D92AF37B107E1F710E0C6ECD0E0C8
:1001000004C02297FE010E94840CC23CD107C9F7AB
:100110000E94DE060C94900C0C9400001F93FC01CE
:1001200099278827BC01E89411911032E9F319301E
:1001300010F01E30C8F31B3251F01D3249F46894A0
:1001400006C00E94CE00610F711D811D911D11918D
:1001500010531A30B0F33EF49095809570956195E8
:100160007F4F8F4F9F4F1F910895FB01DC0102C00D
:1001700001900D9241505040D8F70895FB01DC01E9
:100180008D91019080190110D9F3990B0895FB010D
:10019000DC0101900D920020E1F70895592F482FBE
:1001A000372F262F660F771F881F991F660F771F1F
:1001B000881F991F620F731F841F951F660F771F7B
:1001C000881F991F08958130910581F46F5F7F4FDB
:1001D000D1F481EC91E060E071E00E94880985EB48
:1001E00091E064E071E00E9488090895892B59F438
:1001F0006F5F7F4F41F485EB91E00E94250A81EC0F
:1002000091E00E94250A089580E090E06FEF7FEF73
:100210000E94E300089581E090E06FEF7FEF0E947D
:10022000E3000895882331F080919C0160E00E94F2
:100230007904089580919C0161E00E94790462E054
:1002400070E080E090E00E94460308958091940160
:1002500060E00E94790408958091980160E00E9416
:1002600079040E94260108958091940161E00E9422
:10027000790408958091980160E00E9479040E94B9
:10028000340108950F931F93E1E8F0E08081887FA7
:10029000816080838091940161E00E943A048091A2
:1002A000960161E00E943A048091980161E00E9409
:1002B0003A0480919A0161E00E943A0480919C0185
:1002C00061E00E943A0481E00E94120109E512E017
:1002D000C80140E855E260E070E00E945705C8019F
:1002E00065E071E00E942C08C80164E371E00E949F
:1002F0002908C80161EC71E00E9472081F910F91FA
:1003000008950F931F938C010E94340180919601F0
:1003100060E00E94790480919801B8010E94DA039C
:100320001F910F91089580E090E00E9481010E944A
:100330002C0181E00E94120180919A0160E00E94EC
:10034000790408950F931F938C010E9434018091CA
:10035000960161E00E94790480919801B8010E94A1
:10036000DA031F910F9108950F931F93DF93CF939B
:10037000CDB7DEB72E970FB6F894DEBF0FBECDBF58
:1003800089E592E00E94DE051816190684F585EBD2
:1003900091E064E071E00E94A2090FC089E592E05B
:1003A0000E940F06682F85EB91E00E9442096AE0E7
:1003B00070E080E090E00E94460389E592E00E94B0
:1003C000DE051816190654F381E08093930180919D
:1003D000B401882361F089E592E06EE371E00E9448
:1003E000290889E592E065EB71E00E9472088E01B0
:1003F0000F5F1F4FC80165EB71E041E050E00E94C4
:10040000020AC8010E9497087093BD016093BC0165
:10041000C8010E94250A8E01085F1F4FC80165EBC5
:1004200071E040E050E021E030E00E94BB0985EB44
:1004300091E0B8010E940E0AC8010E94250A85EBCE
:1004400091E00E94A8088091B401882311F1809165
:1004500093018823F1F089E592E065E471E00E9460
:1004600029086091BC017091BD0189E592E04AE0E4
:1004700050E00E94F70789E592E06EE471E00E9487
:10048000290889E592E065EB71E00E9472081092FC
:10049000930185EB91E060E671E00E94BC0888233F
:1004A00009F44EC080E00E94120181E08093BE01F9
:1004B00080919A0161E00E9479046091BC01709181
:1004C000BD0177FD15C08B016F3F710521F01CF058
:1004D0000FEF10E003C06115710551F00E94340167
:1004E000C8010E94A2011093C0010093BF0104C083
:1004F0000E943A0100E010E08091B401882309F4E1
:100500004EC08091BE01813091F489E592E062E6AF
:1005100071E00E94290889E592E0B8014AE050E0C4
:100520000E940A0889E592E06FE671E006C0882320
:10053000B1F589E592E06DE771E00E942C082FC0CB
:1005400085EB91E06CE871E00E94BC08882371F1B2
:1005500080E00E94120181E08093BE0180919A01A7
:1005600061E00E9479048091BC019091BD0197FDEA
:1005700014C08C018F3F910521F01CF00FEF10E0AB
:1005800002C0009751F00E943401C8010E9481010D
:100590001093C0010093BF0102C00E943A0185EB95
:1005A00091E064E071E00E94A20917C085EB91E040
:1005B0006EE871E00E94BC08882319F00E942C01AB
:1005C0000CC085EB91E060E971E00E94BC088823D3
:1005D00021F00E9493011092BE0185EB91E064E04E
:1005E00071E00E94A2092E960FB6F894DEBF0FBEEE
:1005F000CDBFCF91DF911F910F9108951F920F9260
:100600000FB60F9211242F933F938F939F93AF9325
:10061000BF938091CC019091CD01A091CE01B0917A
:10062000CF013091D0010196A11DB11D232F2D5F67
:100630002D3720F02D570196A11DB11D2093D0011B
:100640008093CC019093CD01A093CE01B093CF01C4
:100650008091C8019091C901A091CA01B091CB01CC
:100660000196A11DB11D8093C8019093C901A0936B
:10067000CA01B093CB01BF91AF919F918F913F91F0
:100680002F910F900FBE0F901F9018959B01AC01FA
:100690007FB7F8948091C8019091C901A091CA01D7
:1006A000B091CB0166B5A89B05C06F3F19F00196CC
:1006B000A11DB11D7FBFBA2FA92F982F8827860FA4
:1006C000911DA11DB11D62E0880F991FAA1FBB1FBC
:1006D0006A95D1F7BC012DC0FFB7F8948091C8018D
:1006E0009091C901A091CA01B091CB01E6B5A89B38
:1006F00005C0EF3F19F00196A11DB11DFFBFBA2F34
:10070000A92F982F88278E0F911DA11DB11DE2E002
:10071000880F991FAA1FBB1FEA95D1F7861B970B5D
:10072000885E9340C8F221503040404050406851AC
:100730007C4F211531054105510571F608957894D6
:1007400084B5826084BD84B5816084BD85B58260D6
:1007500085BD85B5816085BDEEE6F0E08081816074
:100760008083E1E8F0E01082808182608083808174
:1007700081608083E0E8F0E0808181608083E1EB4C
:10078000F0E0808184608083E0EBF0E08081816034
:100790008083EAE7F0E080818460808380818260EA
:1007A00080838081816080838081806880831092D3
:1007B000C10008951F93CF93DF93182FEB0161E0E1
:1007C0000E943A04209709F44AC0CF3FD10509F4AA
:1007D00049C0E12FF0E0E255FF4F84918330C1F032
:1007E000843028F4813051F08230B1F50CC086306D
:1007F00019F1873049F1843079F514C084B58068E7
:1008000084BDC7BD33C084B5806284BDC8BD2EC061
:1008100080918000806880938000D0938900C0938D
:10082000880024C080918000806280938000D093F3
:100830008B00C0938A001AC08091B00080688093BA
:10084000B000C093B30012C08091B000806280936A
:10085000B000C093B4000AC0C038D1051CF4812F89
:1008600060E002C0812F61E00E947904DF91CF91A6
:100870001F910895CF93DF93482F50E0CA01865609
:100880009F4FFC0134914A575F4FFA0184918823AE
:1008900069F190E0880F991FFC01E859FF4FA5917D
:1008A000B491FC01EE58FF4FC591D491662351F4E9
:1008B0002FB7F8948C91932F909589238C938881EE
:1008C00089230BC0623061F42FB7F8948C91932F79
:1008D000909589238C938881832B88832FBF06C0B2
:1008E0009FB7F8948C91832B8C939FBFDF91CF910E
:1008F0000895482F50E0CA0182559F4FFC01249172
:10090000CA0186569F4FFC0194914A575F4FFA01E6
:100910003491332309F440C0222351F1233071F084
:10092000243028F42130A1F0223011F514C02630F3
:10093000B1F02730C1F02430D9F404C08091800098
:100940008F7703C0809180008F7D8093800010C0DE
:1009500084B58F7702C084B58F7D84BD09C0809136
:10096000B0008F7703C08091B0008F7D8093B0007E
:10097000E32FF0E0EE0FFF1FEE58FF4FA591B4916B
:100980002FB7F894662321F48C919095892302C0A7
:100990008C91892B8C932FBF089508951F920F92ED
:1009A0000FB60F9211242F933F934F938F939F93E2
:1009B000EF93FF938091C00082FD1DC04091C6005F
:1009C00020911102309112022F5F3F4F2F73307030
:1009D00080911302909114022817390771F0E09169
:1009E0001102F0911202EF52FE4F40833093120237
:1009F0002093110202C08091C600FF91EF919F9158
:100A00008F914F913F912F910F900FBE0F901F909C
:100A10001895E0916502F0916602E05CFF4F8191CC
:100A2000919120813181821B930B8F739070892B60
:100A300011F00E94CD0408951F920F920FB60F92ED
:100A400011242F933F938F939F93EF93FF932091C4
:100A50005502309156028091570290915802281702
:100A6000390731F48091C1008F7D8093C10014C09B
:100A7000E0915702F0915802EB5EFD4F208180918A
:100A800057029091580201968F739070909358027C
:100A9000809357022093C600FF91EF919F918F9111
:100AA0003F912F910F900FBE0F901F901895AF920E
:100AB000BF92DF92EF92FF920F931F93CF93DF933A
:100AC000EC017A018B01DD24403081EE580780E093
:100AD000680780E0780711F0DD24D39491E0A92E17
:100AE000B12CEC89FD89DD2069F0C50108A002C0A8
:100AF000880F991F0A94E2F7808360E079E08DE324
:100B000090E005C0108260E874E88EE190E0A801F2
:100B100097010E94600C2150304040405040569553
:100B200047953795279580E12030380720F0DD2064
:100B300011F0DD24D6CFE889F9893083EA89FB8971
:100B4000208319A2EE89FF89408121E030E0C901AC
:100B50000C8C02C0880F991F0A94E2F7482B40833F
:100B6000EE89FF894081C9010D8C02C0880F991F51
:100B70000A94E2F7482B4083EE89FF894081C9013E
:100B80000E8C02C0880F991F0A94E2F7482B40830D
:100B9000EE89FF8980810F8C02C0220F331F0A94D7
:100BA000E2F7209528232083DF91CF911F910F91A9
:100BB000FF90EF90DF90BF90AF900895DC011C96FE
:100BC000ED91FC911D97E05CFF4F21913191808167
:100BD0009181281B390B2F733070C9010895DC01F6
:100BE0001C96ED91FC911D97E05CFF4F20813181B7
:100BF000E054F040DF01AE5BBF4F8D919C911197A7
:100C00002817390719F42FEF3FEF07C08D919C91FA
:100C1000E80FF91F8081282F30E0C9010895DC0119
:100C20001C96ED91FC911D97E05CFF4F2081318176
:100C3000E054F040DF01AE5BBF4F8D919C91119766
:100C40002817390719F42FEF3FEF10C08D919C91B1
:100C50001197E80FF91F20818D919C9111970196B2
:100C60008F73907011969C938E9330E0C901089514
:100C7000DC0191968C919197882339F05496ED91EF
:100C8000FC915597808186FFF9CF91961C9208952B
:100C9000CF93DF93EC01EE85FF85E05CFF4F208171
:100CA0003181E054F0402F5F3F4F2F733070DF01F0
:100CB000AE5BBF4F8D919C91119728173907D1F3E7
:100CC000E05CFF4F80819181E054F040E80FF91F14
:100CD0006083EE85FF85E05CFF4F31832083EE89E2
:100CE000FF89208181E090E00F8C02C0880F991F5E
:100CF0000A94E2F7282B208381E089A3EC89FD89FF
:100D000080818064808381E090E0DF91CF910895BD
:100D100010925C0210925B0288EE93E0A0E0B0E0DB
:100D200080935D0290935E02A0935F02B093600295
:100D300088EA91E090935A028093590281ED91E004
:100D4000909366028093650285E192E09093680239
:100D50008093670285EC90E090936A028093690229
:100D600084EC90E090936C0280936B0280EC90E0B6
:100D700090936E0280936D0281EC90E090937002EC
:100D800080936F0282EC90E09093720280937102E4
:100D900086EC90E0909374028093730284E08093D9
:100DA000750283E08093760287E08093770285E086
:100DB0008093780281E0809379020895CF93DF9346
:100DC0000E949F030E944201C9E0D5E00E94B40145
:100DD0002097E1F30E940905F9CFCF92DF92EF92BD
:100DE000FF920F931F93CF93DF937C016B018A01D6
:100DF000C0E0D0E00FC0D6016D916D01D701ED913B
:100E0000FC910190F081E02DC7010995C80FD91F11
:100E1000015010400115110571F7CE01DF91CF91FE
:100E20001F910F91FF90EF90DF90CF900895EF9278
:100E3000FF920F931F938C01DC01ED91FC910190C7
:100E4000F081E02D6DE009957C01D801ED91FC91D8
:100E50000190F081E02DC8016AE009959C012E0DFA
:100E60003F1DC9011F910F91FF90EF900895CF93FF
:100E7000DF93EC016115710519F420E030E00FC03B
:100E8000DB010D900020E9F71197A61BB70BE88155
:100E9000F9810280F381E02DAD0109959C01C90122
:100EA000DF91CF9108954F925F927F928F929F92A0
:100EB000AF92BF92CF92DF92EF92FF920F931F9368
:100EC000DF93CF93CDB7DEB7A1970FB6F894DEBF0F
:100ED0000FBECDBF2C01742ECB01223008F42AE0C6
:100EE00019A231E2C32ED12CCC0EDD1E822E992404
:100EF000AA24BB24672D752FA50194010E94600CC4
:100F000079018A01C801B701A50194010E94410C31
:100F1000472D461B0894C108D1084A3014F4405D9F
:100F200001C0495CF6014083E114F104010511059B
:100F300021F07E2C5F2DC801DDCFC201B6010E94D9
:100F40003707A1960FB6F894DEBF0FBECDBFCF9185
:100F5000DF911F910F91FF90EF90DF90CF90BF90A6
:100F6000AF909F908F907F905F904F900895CF9219
:100F7000DF92EF92FF920F931F93CF93DF93EC01D9
:100F80006A017B012115310541F4E881F981019065
:100F9000F081E02D642F09951FC02A303105D1F46E
:100FA00077FF17C0E881F9810190F081E02D6DE2B3
:100FB00009958C0144275527BA014C195D096E0922
:100FC0007F09CE012AE00E9453079801280F391F9C
:100FD00004C02AE00E9453079C01C901DF91CF9110
:100FE0001F910F91FF90EF90DF90CF900895EF92B7
:100FF000FF920F931F937B019A010027F7FC009546
:10100000102FB801A7010E94B7071F910F91FF9001
:10101000EF900895CF92DF92EF92FF920F931F937C
:101020006C017B019A010027F7FC0095102FB80195
:10103000A7010E94B7078C01C6010E941707080F7D
:10104000191FC8011F910F91FF90EF90DF90CF9073
:1010500008950E9437070895EF92FF920F931F9310
:101060007C010E9437078C01C7010E941707080FF7
:10107000191FC8011F910F91FF90EF900895AF9233
:10108000BF92CF92DF92EF92FF920F931F93CF9375
:10109000DF935C016B01EE24FF24C0E0D0E010C0C0
:1010A000D501ED91FC9100811181C601BE010E9424
:1010B0008608682FC501F8010995E80EF91E2196EA
:1010C000F60184819581C817D90750F3C701DF91D4
:1010D000CF911F910F91FF90EF90DF90CF90BF9035
:1010E000AF900895EF92FF920F931F937C010E949F
:1010F0003F088C01C7010E9417079C01200F311F78
:10110000C9011F910F91FF90EF900895FC01848118
:1011100095816817790748F40190F081E02D3097A8
:1011200021F0E60FF71F8081089580E00895FC010B
:1011300080819181009729F420E030E040E050E088
:1011400004C00E948E009B01AC01B901CA01089540
:10115000CF93DF93FC01C081D181209739F409C07E
:10116000992787FD90950E94880C89938881882310
:10117000B9F7DF91CF910895DC01FB0114968D91B1
:101180009C911597892B31F461157105A9F090E0B8
:10119000808108C00D90BC91A02D6115710529F4C6
:1011A00090E08C91882349F407C0CD010E94BE00D5
:1011B0009C0190E0232B09F491E0892F08950F936F
:1011C0001F93CF93DF93EC018B016F5F7F4F88817B
:1011D00099810E94600B009711F480E005C099830B
:1011E00088831B830A8381E0DF91CF911F910F9148
:1011F0000895CF93DF93EC0188819981892B29F0A1
:101200008A819B818617970760F4CE010E94DF08D0
:10121000882341F08C819D81892B19F4E881F98123
:10122000108281E0DF91CF910895EF92FF920F93AA
:101230001F93CF93DF93EC017B016C817D81E114DF
:10124000F104C1F04115510599F08A01060F171FED
:10125000B8010E94F908882369F0888199812C815E
:101260003D81820F931FB7010E94C7001D830C832D
:1012700081E001C080E0DF91CF911F910F91FF903D
:10128000EF900895DF93CF9300D0CDB7DEB7698399
:101290001A82BE016F5F7F4F41E050E00E94150946
:1012A0000F900F90CF91DF910895CF93DF93EC01D2
:1012B00088819981009711F00E94C80A19821882CA
:1012C0001D821C821B821A82DF91CF910895EF92BA
:1012D000FF920F931F93CF93DF93EC017B018A0161
:1012E000BA010E94F908882321F4CE010E94550911
:1012F00007C01D830C8388819981B7010E94C700B4
:10130000CE01DF91CF911F910F91FF90EF90089543
:10131000CF93DF93EC01198218821B821A821D82FF
:101320001C821E826115710551F0DB010D900020B9
:10133000E9F71197A61BB70BAD010E946709DF9172
:10134000CF9108950F931F93182F092F61157105E1
:1013500059F0DB010D900020E9F71197A61BB70BA0
:10136000AD010E94670902C00E945509812F902F8C
:101370001F910F910895BF92CF92DF92EF92FF924B
:101380000F931F93CF93DF93082FB92E6B017A0130
:10139000E9012417350710F4EA017901802F9B2D0C
:1013A00062E971E00E948809D60114968D919C91A2
:1013B00015978E159F05D0F08C179D0708F4EC014A
:1013C000D601ED91FC911197EC0FFD1F1081108259
:1013D0006D917C916E0D7F1D802F9B2D0E94A20927
:1013E000D601ED91FC91EC0FFD1F1083802F9B2DFA
:1013F000DF91CF911F910F91FF90EF90DF90CF90F1
:10140000BF9008950F931F938C01FB0124813581B8
:101410000E94BB09C8011F910F910895CF93DF93DC
:10142000EC01FB018617970761F0608171816115FE
:10143000710529F0448155810E94670902C00E940C
:101440005509CE01DF91CF910895FC0180819181F2
:101450000E94C80A08950F931F93CF93DF93BC0196
:101460008230910510F462E070E0E0917D02F0912D
:101470007E0240E050E0A0E0B0E024C08081918195
:1014800086179707D0F08617970771F482819381AA
:10149000109729F013969C938E9312972CC09093DB
:1014A0007E0280937D0227C04115510519F08417F3
:1014B000950718F48D01AC01EF01DF018281938162
:1014C0009C01F9013097D1F641155105F9F0CA0197
:1014D000861B970B8430910580F48A819B810115CE
:1014E000110521F0F8019383828304C090937E025A
:1014F00080937D02FE01329645C0FE01E80FF91F80
:10150000619371930297998388833CC080917B0299
:1015100090917C02892B41F48091A0019091A101CE
:1015200090937C0280937B024091A2015091A30191
:101530004115510541F44DB75EB780919E019091E0
:101540009F01481B590B20917B0230917C0224178C
:101550003507B0F4CA01821B930B8617970780F0FA
:10156000AB014E5F5F4F8417950750F0420F531F3A
:1015700050937C0240937B02F9016193719302C006
:10158000E0E0F0E0CF01DF91CF911F910F9108953E
:10159000CF93DF939C01009709F48FC0EC01229751
:1015A0001B821A8260917D0270917E026115710525
:1015B00081F488819981820F931F20917B02309161
:1015C0007C022817390739F5D0937C02C0937B023F
:1015D00074C0DB0140E050E0AC17BD0708F1BB83ED
:1015E000AA83FE0121913191E20FF31FAE17BF07CD
:1015F00079F48D919C911197280F391F2E5F3F4FE1
:101600003983288312968D919C9113979B838A83AB
:101610004115510571F4D0937E02C0937D024DC0F7
:1016200012968D919C911397AD01009711F0DC01FA
:10163000D3CFDA011396DC93CE931297FA0121915E
:101640003191E20FF31FCE17DF0769F4888199818A
:10165000280F391F2E5F3F4FFA01318320838A8183
:101660009B8193838283E0E0F0E0DB0112968D9111
:101670009C911397009719F0BC01FD01F6CFAB01C7
:101680004E5F5F4FDB018D919C91840F951F2091E0
:101690007B0230917C022817390779F4309729F4BE
:1016A00010927E0210927D0202C01382128242507A
:1016B000504050937C0240937B02DF91CF9108957C
:1016C0006F927F928F929F92AF92BF92CF92DF9252
:1016D000EF92FF920F931F93CF93DF938C010097AC
:1016E00029F4CB010E942B0A8C01BBC08EEFE82E9F
:1016F0008FEFF82EE00EF11E4801860E971E8E1415
:101700009F0408F4ACC0D7014D915C911197461726
:101710005707B8F04530510508F4A3C0CA01049733
:101720008617970708F49DC042505040461B570B40
:10173000F401419351936D937C93CF010E94C80AA9
:1017400090C05B01A41AB50A3801640E751EA09101
:101750007D02B0917E02E0E0F0E0CC24DD2447C0C1
:10176000A615B705A9F5CD91DC911197CE0102968A
:101770008A159B0568F1CE018A199B09029612967B
:101780002C91129713963C91059758F0F4012283FF
:101790003383CA19DB09D183C083D7016D937C934E
:1017A00009C04E5F5F4F4C0F5D1FF70151834083AF
:1017B000C901FC01C114D10431F0D6011396FC9388
:1017C000EE9312974EC0F0937E02E0937D0249C0E3
:1017D0008D919C911197E817F90708F4FC016D01B0
:1017E00012968C91129713969C919C01D901109797
:1017F00009F0B6CF80917B0290917C028615970507
:10180000E9F4E617F707D0F42091A2013091A30183
:101810002115310541F42DB73EB780919E0190917D
:101820009F01281B390B82169306C8F490927C0204
:1018300080927B02F7017183608313C0CB010E9409
:101840002B0AEC01009759F0D7014D915C91B8013A
:101850000E94B500C8010E94C80A8E0102C000E0C3
:1018600010E0C801DF91CF911F910F91FF90EF9091
:10187000DF90CF90BF90AF909F908F907F906F90B0
:101880000895629FD001739FF001829FE00DF11DCA
:10189000649FE00DF11D929FF00D839FF00D749FEA
:1018A000F00D659FF00D9927729FB00DE11DF91F96
:1018B000639FB00DE11DF91FBD01CF0111240895F3
:1018C000A1E21A2EAA1BBB1BFD010DC0AA1FBB1F44
:1018D000EE1FFF1FA217B307E407F50720F0A21BB6
:1018E000B30BE40BF50B661F771F881F991F1A9423
:1018F00069F760957095809590959B01AC01BD014D
:10190000CF010895EE0FFF1F0590F491E02D09948B
:101910009111089581568A5108F48052855808958E
:1019200010E0C6ECD0E004C0FE010E94840C2296B8
:0A193000C83CD107C9F7F894FFCFB7
:10193A00302E3100004C6F6164636F6E74726F6C8D
:10194A006C65722C204D6F746F727377697463685B
:10195A0020616E6420436F6E74726F6C2E20526524
:10196A006164790056657273696F6E3A20006D730F
:10197A0067313A20004E756D6265723A20002C205C
:10198A006D736720737562737472696E673A2000AB
:10199A004D004D6F746F7273706565643A20004D27
:1019AA006F746F726D6F6465204F6E2E004D6F7489
:1019BA006F726D6F6465204F66662E00420052009A
:1019CA004700000108000700090005000400800024
:1019DA007F020000000000004806ED06DE050F0643
:0419EA00EF053806C7
:00000001FF
